
> main-backend@1.0.0 start
> node app.js

Loaded contract addresses: {
  NodeRegistry: '0x5FbDB2315678afecb367f032d93F642f64180aa3',
  VoteManager: '0xe7f1725E7734CE288F8367e1Bb143E90bb3F0512',
  BankApproval: '0x9fE46736679d2D9a65F0992F2272dE9f3c7fa6e0',
  TransactionStore: '0xCf7Ed3AccA5a467e9e704C703E8D87F634fB0Fc9'
}
Backend running on port 5000
MongoDB Connected
[Main System] Received approval from BankA for tx-1764514602616-sb0uer5jb
Checking Consensus for tx-1764514602616-sb0uer5jb:
Total Nodes: 19, Yes Votes: 0, No Votes: 0, Bank Approvals: 1
Rule A Threshold: 13, Rule B Node Threshold: 10, Rejection Threshold: 10
Creating transaction tx-1764514615787-6b1zcpr3d on-chain before finalizing...
Recording tx-1764514615787-6b1zcpr3d as APPROVED on blockchain...
Error writing to blockchain: nonce has already been used (transaction="0x02f8f182053904843b9aca0084836e579082ca1a94cf7ed3acca5a467e9e704c703e8d87f634fb0fc980b8840de5143400000000000000000000000000000000000000000000000000000000000000400000000000000000000000000000000000000000000000000000000000000001000000000000000000000000000000000000000000000000000000000000001a74782d313736343531343631353738372d3662317a6370723364000000000000c080a0f5bb71b0898df157da737be935236b18457c168c6dc240da7ad72e02bad1f88aa03b248e923d1fa034e5ae0191dc9f3eb4b2a1127ce99b90481f674e290f49ebce", info={ "error": { "code": -32000, "data": { "data": null, "message": "Nonce too low. Expected nonce to be 5 but got 4. Note that transactions can't be queued when automining." }, "message": "Nonce too low. Expected nonce to be 5 but got 4. Note that transactions can't be queued when automining." } }, code=NONCE_EXPIRED, version=6.15.0)
Checking Consensus for tx-1764514602616-sb0uer5jb:
Total Nodes: 19, Yes Votes: 1, No Votes: 0, Bank Approvals: 1
Rule A Threshold: 13, Rule B Node Threshold: 10, Rejection Threshold: 10
Checking Consensus for tx-1764514602616-sb0uer5jb:
Total Nodes: 19, Yes Votes: 2, No Votes: 0, Bank Approvals: 1
Rule A Threshold: 13, Rule B Node Threshold: 10, Rejection Threshold: 10
Checking Consensus for tx-1764514602616-sb0uer5jb:
Total Nodes: 19, Yes Votes: 3, No Votes: 0, Bank Approvals: 1
Rule A Threshold: 13, Rule B Node Threshold: 10, Rejection Threshold: 10
Checking Consensus for tx-1764514602616-sb0uer5jb:
Total Nodes: 19, Yes Votes: 4, No Votes: 0, Bank Approvals: 1
Rule A Threshold: 13, Rule B Node Threshold: 10, Rejection Threshold: 10
Checking Consensus for tx-1764514602616-sb0uer5jb:
Total Nodes: 19, Yes Votes: 5, No Votes: 0, Bank Approvals: 1
Rule A Threshold: 13, Rule B Node Threshold: 10, Rejection Threshold: 10
Checking Consensus for tx-1764514602616-sb0uer5jb:
Total Nodes: 19, Yes Votes: 6, No Votes: 0, Bank Approvals: 1
Rule A Threshold: 13, Rule B Node Threshold: 10, Rejection Threshold: 10
Checking Consensus for tx-1764514602616-sb0uer5jb:
Total Nodes: 19, Yes Votes: 7, No Votes: 0, Bank Approvals: 1
Rule A Threshold: 13, Rule B Node Threshold: 10, Rejection Threshold: 10
Checking Consensus for tx-1764514602616-sb0uer5jb:
Total Nodes: 19, Yes Votes: 8, No Votes: 0, Bank Approvals: 1
Rule A Threshold: 13, Rule B Node Threshold: 10, Rejection Threshold: 10
Checking Consensus for tx-1764514602616-sb0uer5jb:
Total Nodes: 19, Yes Votes: 9, No Votes: 0, Bank Approvals: 1
Rule A Threshold: 13, Rule B Node Threshold: 10, Rejection Threshold: 10
Checking Consensus for tx-1764514602616-sb0uer5jb:
Total Nodes: 19, Yes Votes: 10, No Votes: 0, Bank Approvals: 1
Rule A Threshold: 13, Rule B Node Threshold: 10, Rejection Threshold: 10
Consensus Reached: Rule B
Creating transaction tx-1764514602616-sb0uer5jb on-chain before finalizing...
Recording tx-1764514602616-sb0uer5jb as APPROVED on blockchain...
Error writing to blockchain: nonce has already been used (transaction="0x02f8f182053905843b9aca00847b1b4dcc82ca1a94cf7ed3acca5a467e9e704c703e8d87f634fb0fc980b8840de5143400000000000000000000000000000000000000000000000000000000000000400000000000000000000000000000000000000000000000000000000000000001000000000000000000000000000000000000000000000000000000000000001a74782d313736343531343630323631362d736230756572356a62000000000000c001a04b21adaf10cc7aea7e585c7ea51d1db6162f9cf7422f3cfe2e1ad7cc4c808ac8a02c44a89da0a74b3fe38cb6e59cdc957e0e652f8181e1112b6bafbb0e153d0490", info={ "error": { "code": -32000, "data": { "data": null, "message": "Nonce too low. Expected nonce to be 6 but got 5. Note that transactions can't be queued when automining." }, "message": "Nonce too low. Expected nonce to be 6 but got 5. Note that transactions can't be queued when automining." } }, code=NONCE_EXPIRED, version=6.15.0)
